:020000040000FA
:060000000A128A11122809
:10000800FE00030EF6000408F7000A08F800831241
:1000180003137F08F9000A128A117B290A128A1130
:10002800152883135630FD000330FE002830FF00EA
:10003800463084000A128A1119230A128A11830190
:100048000A128A11682A83120313AD000130A7002F
:100058002708AA000930A7002708AB001530A70019
:100068002708AC002C08A7002708A0002D080A12B2
:100078008A1109220A128A11831203132008210403
:10008800031D47284828922801300A128A11D822CD
:100098000A128A1181300A128A11D8220A128A1188
:1000A80083120313AE01AF01831203132E082B072B
:1000B80084000A128A118C220A128A110A128A11E1
:1000C800C3220A128A11013083120313AE070318E0
:1000D800AF0A0030AF072F08803AFF0080307F0258
:1000E800031D782804302E02031C7B287C285828FE
:1000F8001F3083120313A9007130A8001D30A70018
:10010800A70B8428A80B8428A90B84288B280130E6
:100118000A128A11D8220A128A11DF2801300A121B
:100128008A11D8220A128A1181300A128A11D82219
:100138000A128A1183120313B001B1018312031347
:1001480030082A0784000A128A118C220A128A119E
:100158000A128A11C3220A128A1101308312031368
:10016800B0070318B10A0030B1073108803AFF0020
:1001780080307F02031DC22807303002031CC528C7
:10018800C628A2281F3083120313A9007130A800C3
:100198001D30A700A70BCE28A80BCE28A90BCE2868
:1001A800D52801300A128A11D8220A128A11013080
:1001B8008312031381020800831203130814C00179
:1001C800C101C301C2010808B70004300310B70C0D
:1001D800FF3E031DEA283708B800B9013808BE00F9
:1001E8003908BF002A2943080A128A1139220A123B
:1001F8008A1183120313B7003708C2003D29430848
:10020800013E0A128A1139220A128A118312031333
:10021800B7003708C2003D294308023E0A128A1176
:1002280039220A128A1183120313B7003708C20051
:100238003D294308033E0A128A1139220A128A11FB
:1002480083120313B7003708C2003D293F08003A5C
:1002580003192F293D293E08013A0319F728033AC3
:1002680003190329063A031910290C3A03191D2901
:100278003D290430B7003708C3070310880D08303C
:100288000806031D482949294C2901308800C30163
:100298004208031950295129E72842080A128A11ED
:1002A800AC220A128A11831203134208B7004008CD
:1002B8003A3E8400370883138000C2010130C0072A
:1002C8000318C10A0030C107053040064104031D68
:1002D8006E296F29E7283A300A128A1127200A1254
:1002E8008A1183120313C001C101E72808000F30E7
:1002F800F3007308FA000B1501300A128A11ED2277
:100308000A128A1181300A128A11ED220A128A1100
:10031800FB01FC017B087A0784000A128A118C22EF
:100328000A128A110A128A1101230A128A1101304B
:10033800FB070318FC0A0030FC077C08803AFF0022
:1003480080307F02031DAA2904307B02031CAD29DB
:10035800AE298E291F30F5007130F4001E30F300ED
:10036800F30BB429F40BB429F50BB42900000130C0
:100378000A128A11ED220A128A118B120B108B10A5
:10038800790883120313FF0078088A00770884002D
:10039800760E8300FE0E7E0E0900013083160317C9
:1003A8008800890183160313890106118614F03029
:1003B800880085018701831203138801850187015D
:1003C800860189013830A3000A128A11D8220A123C
:1003D8008A110C3083120313A3000A128A11D8223F
:1003E8000A128A11063083120313A3000A128A1113
:1003F800D8220A128A11013083120313A3000A12A9
:100408008A11D8220A128A11080083120313A6003F
:10041800152A0130A2002208A6070130A2002208EE
:10042800A007200884000A128A118C220A128A1155
:10043800A2002608840083130008A30022082302D0
:10044800A4002408A5002508031D2B2A2C2A332ADA
:10045800260884000008031D322A332A0D2A25089D
:10046800A000A101A01BA103080083120313B4007C
:10047800243084004630A0000408A1001030A200F7
:100488002008840083130008A300A00A2108840020
:1004980023088000A10AA20B442A081A542A552AC4
:1004A800512A881A582A592A552A081B5C2A5D2A73
:1004B800592A881B602A612A5D2A08143408243EB8
:1004C80084008313000808000A128A11D1210A1235
:1004D8008A11013083120313C4000030C5007F2A3B
:1004E8000A128A11E0200A128A11831203133608AD
:1004F800C5003508C4004508003A0319842A7F2A34
:100508004408013A0319742A7F2A0A128A11122808
:1005180002308A000408840A820700342D342D34FE
:100528002D342D342D342D342D3400342A342A34EE
:100538002A342A342A3400342D342A342D342A34E7
:100548002D340034313432343334343435340034D7
:1005580083120313A3002E302306031DB42AB52AE1
:10056800BC2A01300A128A11D8220A128A11C22A18
:1005780023080A128A11C3220A128A110800831258
:100588000313A2008914083083120313A100C93091
:10059800A000A00BCD2AA10BCD2A83120313220899
:1005A800850009150911080083120313A200891098
:1005B800083083120313A100C930A000A00BE22A5F
:1005C800A10BE22A831203132208850009150911D9
:1005D8000800F2008312031389100830F100C930B3
:1005E800F000F00BF52AF10BF52AFA2A72088312AB
:1005F80003138500091509110800F200831203137B
:1006080089140830F100C930F000F00B092BF10B08
:10061800092B0E2B72088312031385000915091183
:1006280008007E088A007F0882000A128A111523B2
:100638000A128A118000840A04087D06031900340E
:10064800FF0A0319FE0A192B3734383439342F348A
:1006580034343534363478343134323433342D3418
:080668002E3430343D342B34F4
:04400E004520FF3F0B
:00000001FF
