:020000040000FA
:100000000A128A11EE2F00308A000408840A82073F
:10001000003445345334503445345234453420345C
:100020003534203453344534473455344E34443415
:100030004F34533400344134433445345034543411
:10004000413444344F34003449344E34563441340E
:100050004C34493444344F34003441344234433412
:060060004434303400348A
:100D24003734383439342F34343435343634783431
:100D34003134323433342D34413430343D342B3473
:100D44007E088A007F0882000A128A11A2260A12EB
:100D54008A118000840A04087D0603190034FF0AFE
:100D64000319FE0AA62EF200831203138910083019
:100D7400F100C930F000F00BBD2EF10BBD2EC22ED8
:100D84007208831203138500091509110800F20083
:100D94008312031389140830F100C930F000F00BFA
:100DA400D12EF10BD12ED62E720883120313850097
:100DB400091509110800F30001300A128A11B52639
:100DC4000A128A1181300A128A11B5260A128A116E
:100DD40073080A128A11C9260A128A1108000A1213
:100DE4008A1144270A128A11013083120313B100B5
:100DF4000030B200082F0A128A1176270A128A11CB
:100E0400750883120313B2007408B1003208003A63
:100E140003190D2F082F3108013A0319FD2E082F4D
:100E24000A128A11002883120313B00020308400B0
:100E34003330F0000408F1001030F2007008840030
:100E440083130008F300F00A71088400730880001B
:100E5400F10AF20B202F081A302F312F2D2F881A68
:100E6400342F352F312F081B382F392F352F881B5E
:100E74003C2F3D2F392F08143008203E8400831363
:100E840000080800013083160317880089018316BF
:100E94000313890106118614F03088008501870147
:100EA4008312031388018501870186018901383083
:100EB400F3000A128A11B5260A128A110C30F300C3
:100EC4000A128A11B5260A128A110630F3000A1290
:100ED4008A11B5260A128A110130F3000A128A1106
:100EE400B5260A128A110800831203130814FC01A0
:100EF400FD01FB01831203130808F60004300310FC
:100F0400F60CFF3E031D812F7608F700F8017708E1
:100F1400F9007808FA00B92F7C080A128A111527FB
:100F24000A128A11F6007608FB00CC2F7C08013ED9
:100F34000A128A1115270A128A11F6007608FB0094
:100F4400CC2F7C08023E0A128A1115270A128A1134
:100F5400F6007608FB00CC2F7C08033E0A128A11A7
:100F640015270A128A11F6007608FB00CC2F7A089E
:100F7400003A0319BE2FCC2F7908013A03198E2F9A
:100F8400033A0319982F063A0319A32F0C3A0319AD
:100F9400AE2FCC2F0430FC070318FD0A0030FD07E8
:100FA400031083120313880D08300806031DDB2F7A
:100FB400DC2FE02F01308800FC01FD017B080319C0
:100FC400E42FE52F7C2F7B080A128A11DD260A12F2
:100FD4008A11FB017C2F080083134330FD00063087
:100FE400FE009230FF00333084000A128A11A626D4
:0C0FF4000A128A1183010A128A11F12EE0
:04400E004520FF3F0B
:00000001FF
