:020000040000FA
:100000000A128A11EE2F00308A000408840A82073F
:10001000003445345334503445345234453420345C
:100020003534203453344534473455344E34443415
:100030004F34533400344134433445345034543411
:10004000413444344F34003449344E34563441340E
:100050004C34493444344F34003441344234433412
:060060004434303400348A
:100B84007E088A007F0882000A128A11C2250A128E
:100B94008A118000840A04087D0603190034FF0AC0
:100BA4000319FE0AC62DF2008312031389100830BC
:100BB400F100C930F000F00BDD2DF10BDD2DE22D3D
:100BC4007208831203138500091509110800F20045
:100BD4008312031389140830F100C930F000F00BBC
:100BE400F12DF10BF12DF62D7208831203138500FC
:100BF40009150911080031343234333441343434A2
:100C040035343634423437343834393443342A347E
:100C140030342334443465346D34703474340A12FB
:100C24008A1162260A128A110130F8000030F90094
:100C3400262E0A128A1194260A128A118312031389
:100C44003208F9003108F8007908003A03192B2E0C
:100C5400262E7808013A03191B2E262E0A128A1111
:100C6400002883120313B000203084003C30F000CD
:100C74000408F1001030F2007008840083130008A7
:100C8400F300F00A7108840073088000F10AF20B83
:100C94003E2E081A4E2E4F2E4B2E881A522E532EAD
:100CA4004F2E081B562E572E532E881B5A2E5B2E62
:100CB400572E08143008203E8400831300080800CF
:100CC40001308316031788008901831603138901F1
:100CD40006118614F03088008501870183120313FE
:100CE400880185018701860189013830F3000A12E1
:100CF4008A11D5250A128A110C30F3000A128A11BE
:100D0400D5250A128A110630F3000A128A11D52554
:100D14000A128A110130F3000A128A11D5250A1227
:100D24008A11080083120313B701B8010814BB0128
:100D34004F08B6004E08B5004D08B4004C08B30087
:100D4400F12E08300806031DA82EA92EAB2E013063
:100D540088000808F6007608BA00D22E3B080A126A
:100D64008A1133260A128A110130F600760883129A
:100D74000313BB07E82E3B080A128A1133260A1212
:100D84008A11B62E3B080A128A1133260A128A11D6
:100D9400B62E3B080A128A1133260A128A11B62E7D
:100DA4003A08F600F7017708003A0319DA2EE82E1C
:100DB4007608103A0319B02E303A0319BD2E603A62
:100DC4000319C42EC03A0319CB2EE82E0310880D44
:100DD40011303B02031CEF2EF02EF12EBB010F301D
:100DE4003B02031CF62EF72EA32E043037063804DC
:100DF400031DFD2EFE2EF02E33300A128A110B270E
:100E04000A128A11013083120313B1000030B200B8
:100E1400080083120313A6001C30F3007308A30018
:100E24001330F3007308A4002530F3007308A50001
:100E3400AB01AC01831203132B08250784000A12AB
:100E44008A1103200A128A11F3002B082607F400E2
:100E540074088400831300087306031D322F332F94
:100E6400392F0130A1070318A20A0030A20701306C
:100E7400AB070318AC0A0030AC072C08803AFF001B
:100E840080307F02031D482F04302B02031C4B2F9C
:100E94004C2F1C2F04308312031321062204031D3C
:100EA400542F552FA62F01300A128A11D5250A1264
:100EB4008A1183300A128A11D5250A128A118312E3
:100EC4000313A701A801831203132708240784002E
:100ED4000A128A1103200A128A110A128A11E925B8
:100EE4000A128A11013083120313A7070318A80AF0
:100EF4000030A8072808803AFF0080307F02031DD5
:100F0400852F07302702031C882F892F652F1F3058
:100F1400F5007130F4001E30F300F30B8F2FF40B47
:100F24008F2FF50B8F2F000001300A128A11D5255F
:100F34000A128A1101300A128A11D5250A128A115D
:100F4400831203130710ED2F01300A128A11D525DD
:100F54000A128A1181300A128A11D5250A128A11BD
:100F640083120313A901AA01831203132908230777
:100F740084000A128A1103200A128A110A128A11A1
:100F8400E9250A128A11013083120313A9070318F1
:100F9400AA0A0030AA072A08803AFF0080307F029C
:100FA400031DD62F07302902031CD92FDA2FB62FA1
:100FB4000B30F5002630F4005D30F300F30BE02F26
:100FC400F40BE02FF50BE02FE72F01300A128A1102
:100FD400D5250A128A11080083135030FD0005300C
:100FE400FE00FD30FF003C3084000A128A11C62541
:0C0FF4000A128A1183010A128A11112EC0
:04400E004520FF3F0B
:00000001FF
